{
  "contractName": "PropertyRegistry",
  "abi": [
    {
      "constant": true,
      "inputs": [
        {
          "name": "",
          "type": "uint256"
        }
      ],
      "name": "stayData",
      "outputs": [
        {
          "name": "price",
          "type": "uint256"
        },
        {
          "name": "stays",
          "type": "uint256"
        },
        {
          "name": "occupant",
          "type": "address"
        },
        {
          "name": "requested",
          "type": "address"
        },
        {
          "name": "approved",
          "type": "address"
        },
        {
          "name": "checkIn",
          "type": "uint256"
        },
        {
          "name": "checkOut",
          "type": "uint256"
        }
      ],
      "payable": false,
      "stateMutability": "view",
      "type": "function"
    },
    {
      "constant": true,
      "inputs": [
        {
          "name": "",
          "type": "uint256"
        }
      ],
      "name": "registeredProperties",
      "outputs": [
        {
          "name": "",
          "type": "uint256"
        }
      ],
      "payable": false,
      "stateMutability": "view",
      "type": "function"
    },
    {
      "inputs": [
        {
          "name": "_property",
          "type": "address"
        },
        {
          "name": "_propertyToken",
          "type": "address"
        }
      ],
      "payable": false,
      "stateMutability": "nonpayable",
      "type": "constructor"
    },
    {
      "anonymous": false,
      "inputs": [
        {
          "indexed": true,
          "name": "_tokenId",
          "type": "uint256"
        }
      ],
      "name": "Registered",
      "type": "event"
    },
    {
      "anonymous": false,
      "inputs": [
        {
          "indexed": true,
          "name": "_tokenId",
          "type": "uint256"
        }
      ],
      "name": "Approved",
      "type": "event"
    },
    {
      "anonymous": false,
      "inputs": [
        {
          "indexed": true,
          "name": "_tokenId",
          "type": "uint256"
        }
      ],
      "name": "Requested",
      "type": "event"
    },
    {
      "anonymous": false,
      "inputs": [
        {
          "indexed": true,
          "name": "_tokenId",
          "type": "uint256"
        }
      ],
      "name": "CheckIn",
      "type": "event"
    },
    {
      "anonymous": false,
      "inputs": [
        {
          "indexed": true,
          "name": "_tokenId",
          "type": "uint256"
        }
      ],
      "name": "CheckOut",
      "type": "event"
    },
    {
      "constant": true,
      "inputs": [
        {
          "name": "_tokenId",
          "type": "uint256"
        }
      ],
      "name": "getStayData",
      "outputs": [
        {
          "name": "",
          "type": "uint256"
        },
        {
          "name": "",
          "type": "uint256"
        },
        {
          "name": "",
          "type": "address"
        },
        {
          "name": "",
          "type": "address"
        },
        {
          "name": "",
          "type": "address"
        },
        {
          "name": "",
          "type": "uint256"
        },
        {
          "name": "",
          "type": "uint256"
        }
      ],
      "payable": false,
      "stateMutability": "view",
      "type": "function"
    },
    {
      "constant": false,
      "inputs": [
        {
          "name": "_tokenId",
          "type": "uint256"
        },
        {
          "name": "_price",
          "type": "uint256"
        }
      ],
      "name": "registerProperty",
      "outputs": [],
      "payable": false,
      "stateMutability": "nonpayable",
      "type": "function"
    },
    {
      "constant": false,
      "inputs": [
        {
          "name": "_tokenId",
          "type": "uint256"
        },
        {
          "name": "_checkIn",
          "type": "uint256"
        },
        {
          "name": "_checkOut",
          "type": "uint256"
        }
      ],
      "name": "request",
      "outputs": [],
      "payable": false,
      "stateMutability": "nonpayable",
      "type": "function"
    },
    {
      "constant": false,
      "inputs": [
        {
          "name": "_tokenId",
          "type": "uint256"
        }
      ],
      "name": "approveRequest",
      "outputs": [],
      "payable": false,
      "stateMutability": "nonpayable",
      "type": "function"
    },
    {
      "constant": false,
      "inputs": [
        {
          "name": "_tokenId",
          "type": "uint256"
        }
      ],
      "name": "checkIn",
      "outputs": [],
      "payable": false,
      "stateMutability": "nonpayable",
      "type": "function"
    },
    {
      "constant": false,
      "inputs": [
        {
          "name": "_tokenId",
          "type": "uint256"
        }
      ],
      "name": "checkOut",
      "outputs": [],
      "payable": false,
      "stateMutability": "nonpayable",
      "type": "function"
    }
  ],
  "bytecode": "0x608060405234801561001057600080fd5b506040516040806112228339810180604052810190808051906020019092919080519060200190929190505050816000806101000a81548173ffffffffffffffffffffffffffffffffffffffff021916908373ffffffffffffffffffffffffffffffffffffffff16021790555080600160006101000a81548173ffffffffffffffffffffffffffffffffffffffff021916908373ffffffffffffffffffffffffffffffffffffffff1602179055505050611153806100cf6000396000f30060806040526004361061008e576000357c0100000000000000000000000000000000000000000000000000000000900463ffffffff1680631bd2eeee146100935780637415733b146100c0578063a4beaa58146101af578063c2e10ef8146101f0578063d7d1bbdb14610227578063e65befd114610254578063e95a644f14610295578063f4daaa35146102c2575b600080fd5b34801561009f57600080fd5b506100be600480360381019080803590602001909291905050506103b1565b005b3480156100cc57600080fd5b506100eb600480360381019080803590602001909291905050506106b8565b604051808881526020018781526020018673ffffffffffffffffffffffffffffffffffffffff1673ffffffffffffffffffffffffffffffffffffffff1681526020018573ffffffffffffffffffffffffffffffffffffffff1673ffffffffffffffffffffffffffffffffffffffff1681526020018473ffffffffffffffffffffffffffffffffffffffff1673ffffffffffffffffffffffffffffffffffffffff16815260200183815260200182815260200197505050505050505060405180910390f35b3480156101bb57600080fd5b506101da6004803603810190808035906020019092919050505061075a565b6040518082815260200191505060405180910390f35b3480156101fc57600080fd5b50610225600480360381019080803590602001909291908035906020019092919050505061077d565b005b34801561023357600080fd5b5061025260048036038101908080359060200190929190505050610a6f565b005b34801561026057600080fd5b50610293600480360381019080803590602001909291908035906020019092919080359060200190929190505050610c30565b005b3480156102a157600080fd5b506102c060048036038101908080359060200190929190505050610d5e565b005b3480156102ce57600080fd5b506102ed60048036038101908080359060200190929190505050611002565b604051808881526020018781526020018673ffffffffffffffffffffffffffffffffffffffff1673ffffffffffffffffffffffffffffffffffffffff1681526020018573ffffffffffffffffffffffffffffffffffffffff1673ffffffffffffffffffffffffffffffffffffffff1681526020018473ffffffffffffffffffffffffffffffffffffffff1673ffffffffffffffffffffffffffffffffffffffff16815260200183815260200182815260200197505050505050505060405180910390f35b3373ffffffffffffffffffffffffffffffffffffffff166003600083815260200190815260200160002060020160009054906101000a900473ffffffffffffffffffffffffffffffffffffffff1673ffffffffffffffffffffffffffffffffffffffff1614151561042157600080fd5b600160009054906101000a900473ffffffffffffffffffffffffffffffffffffffff1673ffffffffffffffffffffffffffffffffffffffff1663a9059cbb6000809054906101000a900473ffffffffffffffffffffffffffffffffffffffff1673ffffffffffffffffffffffffffffffffffffffff16636352211e846040518263ffffffff167c010000000000000000000000000000000000000000000000000000000002815260040180828152602001915050602060405180830381600087803b1580156104ef57600080fd5b505af1158015610503573d6000803e3d6000fd5b505050506040513d602081101561051957600080fd5b810190808051906020019092919050505060036000858152602001908152602001600020600001546040518363ffffffff167c0100000000000000000000000000000000000000000000000000000000028152600401808373ffffffffffffffffffffffffffffffffffffffff1673ffffffffffffffffffffffffffffffffffffffff16815260200182815260200192505050602060405180830381600087803b1580156105c657600080fd5b505af11580156105da573d6000803e3d6000fd5b505050506040513d60208110156105f057600080fd5b8101908080519060200190929190505050151561060c57600080fd5b60006003600083815260200190815260200160002060030160006101000a81548173ffffffffffffffffffffffffffffffffffffffff021916908373ffffffffffffffffffffffffffffffffffffffff1602179055506003600082815260200190815260200160002060010160008154809291906001019190505550807f2c276699fefbad45f18509233bc03bb9cfdf41b18f32756933188bdef35fef5560405160405180910390a250565b60036020528060005260406000206000915090508060000154908060010154908060020160009054906101000a900473ffffffffffffffffffffffffffffffffffffffff16908060030160009054906101000a900473ffffffffffffffffffffffffffffffffffffffff16908060040160009054906101000a900473ffffffffffffffffffffffffffffffffffffffff16908060050154908060060154905087565b60028181548110151561076957fe5b906000526020600020016000915090505481565b813373ffffffffffffffffffffffffffffffffffffffff166000809054906101000a900473ffffffffffffffffffffffffffffffffffffffff1673ffffffffffffffffffffffffffffffffffffffff16636352211e836040518263ffffffff167c010000000000000000000000000000000000000000000000000000000002815260040180828152602001915050602060405180830381600087803b15801561082557600080fd5b505af1158015610839573d6000803e3d6000fd5b505050506040513d602081101561084f57600080fd5b810190808051906020019092919050505073ffffffffffffffffffffffffffffffffffffffff1614151561088257600080fd5b60e06040519081016040528083815260200160008152602001600073ffffffffffffffffffffffffffffffffffffffff168152602001600073ffffffffffffffffffffffffffffffffffffffff168152602001600073ffffffffffffffffffffffffffffffffffffffff16815260200160008152602001600081525060036000858152602001908152602001600020600082015181600001556020820151816001015560408201518160020160006101000a81548173ffffffffffffffffffffffffffffffffffffffff021916908373ffffffffffffffffffffffffffffffffffffffff16021790555060608201518160030160006101000a81548173ffffffffffffffffffffffffffffffffffffffff021916908373ffffffffffffffffffffffffffffffffffffffff16021790555060808201518160040160006101000a81548173ffffffffffffffffffffffffffffffffffffffff021916908373ffffffffffffffffffffffffffffffffffffffff16021790555060a0820151816005015560c082015181600601559050506002839080600181540180825580915050906001820390600052602060002001600090919290919091505550827f1fcb8fd4a09d0facf37b6e1cd47a0cce5aa0b069a1d3d5bd9c223220fa1f5a1c60405160405180910390a2505050565b803373ffffffffffffffffffffffffffffffffffffffff166000809054906101000a900473ffffffffffffffffffffffffffffffffffffffff1673ffffffffffffffffffffffffffffffffffffffff16636352211e836040518263ffffffff167c010000000000000000000000000000000000000000000000000000000002815260040180828152602001915050602060405180830381600087803b158015610b1757600080fd5b505af1158015610b2b573d6000803e3d6000fd5b505050506040513d6020811015610b4157600080fd5b810190808051906020019092919050505073ffffffffffffffffffffffffffffffffffffffff16141515610b7457600080fd5b6003600083815260200190815260200160002060030160009054906101000a900473ffffffffffffffffffffffffffffffffffffffff166003600084815260200190815260200160002060040160006101000a81548173ffffffffffffffffffffffffffffffffffffffff021916908373ffffffffffffffffffffffffffffffffffffffff160217905550817f3ad93af63cb7967b23e4fb500b7d7d28b07516325dcf341f88bebf959d82c1cb60405160405180910390a25050565b600073ffffffffffffffffffffffffffffffffffffffff166003600085815260200190815260200160002060030160009054906101000a900473ffffffffffffffffffffffffffffffffffffffff1673ffffffffffffffffffffffffffffffffffffffff16141515610ca157600080fd5b336003600085815260200190815260200160002060030160006101000a81548173ffffffffffffffffffffffffffffffffffffffff021916908373ffffffffffffffffffffffffffffffffffffffff160217905550816003600085815260200190815260200160002060050181905550806003600085815260200190815260200160002060060181905550827f54593fbf3d0e13af724316e44a7387ee756ab753993496c7009658e83217002c60405160405180910390a2505050565b3373ffffffffffffffffffffffffffffffffffffffff166003600083815260200190815260200160002060040160009054906101000a900473ffffffffffffffffffffffffffffffffffffffff1673ffffffffffffffffffffffffffffffffffffffff16141515610dce57600080fd5b600360008281526020019081526020016000206005015442111515610df257600080fd5b600160009054906101000a900473ffffffffffffffffffffffffffffffffffffffff1673ffffffffffffffffffffffffffffffffffffffff166323b872dd333060036000868152602001908152602001600020600001546040518463ffffffff167c0100000000000000000000000000000000000000000000000000000000028152600401808473ffffffffffffffffffffffffffffffffffffffff1673ffffffffffffffffffffffffffffffffffffffff1681526020018373ffffffffffffffffffffffffffffffffffffffff1673ffffffffffffffffffffffffffffffffffffffff1681526020018281526020019350505050602060405180830381600087803b158015610f0157600080fd5b505af1158015610f15573d6000803e3d6000fd5b505050506040513d6020811015610f2b57600080fd5b81019080805190602001909291905050501515610f4757600080fd5b6003600082815260200190815260200160002060040160009054906101000a900473ffffffffffffffffffffffffffffffffffffffff166003600083815260200190815260200160002060020160006101000a81548173ffffffffffffffffffffffffffffffffffffffff021916908373ffffffffffffffffffffffffffffffffffffffff160217905550807fdf06c27528e294967ba5e32e69b9c5fe102a58c699c44740c2c4c6afc719253560405160405180910390a250565b60008060008060008060006003600089815260200190815260200160002060000154600360008a815260200190815260200160002060010154600360008b815260200190815260200160002060030160009054906101000a900473ffffffffffffffffffffffffffffffffffffffff16600360008c815260200190815260200160002060040160009054906101000a900473ffffffffffffffffffffffffffffffffffffffff16600360008d815260200190815260200160002060020160009054906101000a900473ffffffffffffffffffffffffffffffffffffffff16600360008e815260200190815260200160002060050154600360008f81526020019081526020016000206006015496509650965096509650965096509193959790929496505600a165627a7a72305820d2a733be719d8f3970754bfd18fda0d68e8fa8b6bd176e36ffd10d651153bb540029",
  "source": "pragma solidity ^0.4.24;\n\nimport \"../node_modules/zeppelin-solidity/contracts/token/ERC721/ERC721Basic.sol\";\nimport \"../node_modules/zeppelin-solidity/contracts/token/ERC20/ERC20.sol\";\n\ncontract PropertyRegistry {\n\n  ERC721Basic property;\n  ERC20 propertyToken;\n\n  uint256[] public registeredProperties;\n\n  mapping(uint256 => Data) public stayData;\n\n  struct Data {\n    uint256 price;\n    uint256 stays;\n    address occupant;\n    address requested;\n    address approved;\n    uint256 checkIn;\n    uint256 checkOut;\n  }\n\n  constructor(address _property, address _propertyToken) public {\n    property = ERC721Basic(_property);\n    propertyToken = ERC20(_propertyToken);\n  }\n\n  event Registered(uint256 indexed _tokenId);\n  event Approved(uint256 indexed _tokenId);\n  event Requested(uint256 indexed _tokenId);\n  event CheckIn(uint256 indexed _tokenId);\n  event CheckOut(uint256 indexed _tokenId);\n\n  modifier onlyOwner(uint256 _tokenId) {\n    require(property.ownerOf(_tokenId) == msg.sender);\n    _;\n  }\n\n  function getStayData(uint256 _tokenId) external view returns(uint256, uint256, address, address, address, uint256, uint256) {\n    return (\n      stayData[_tokenId].price,\n      stayData[_tokenId].stays,\n      stayData[_tokenId].requested,\n      stayData[_tokenId].approved,\n      stayData[_tokenId].occupant,\n      stayData[_tokenId].checkIn,\n      stayData[_tokenId].checkOut\n    );\n  }\n\n  function registerProperty(uint256 _tokenId, uint256 _price) external onlyOwner(_tokenId) {\n    stayData[_tokenId] = Data(_price, 0, address(0), address(0), address(0), 0, 0);\n    registeredProperties.push(_tokenId);\n    emit Registered(_tokenId);\n\n  }\n\n  function request(uint256 _tokenId, uint256 _checkIn, uint256 _checkOut) external {\n    require(stayData[_tokenId].requested == address(0));\n    stayData[_tokenId].requested = msg.sender;\n    stayData[_tokenId].checkIn = _checkIn;\n    stayData[_tokenId].checkOut = _checkOut;\n    emit Requested(_tokenId);\n  }\n\n  function approveRequest(uint256 _tokenId) external onlyOwner(_tokenId) {\n    stayData[_tokenId].approved = stayData[_tokenId].requested;\n    emit Approved(_tokenId);\n  }\n\n  function checkIn(uint256 _tokenId) external {\n    require(stayData[_tokenId].approved == msg.sender);\n    require(block.timestamp > stayData[_tokenId].checkIn);\n    require(propertyToken.transferFrom(msg.sender, this, stayData[_tokenId].price));\n    stayData[_tokenId].occupant = stayData[_tokenId].approved;\n    emit CheckIn(_tokenId);\n  }\n\n  function checkOut(uint256 _tokenId) external {\n    require(stayData[_tokenId].occupant == msg.sender);\n    //require(now < stayData[_tokenId].checkOut);\n    //REQUIRED: transfer tokens to Alice upon successful check out\n    require(propertyToken.transfer(property.ownerOf(_tokenId), stayData[_tokenId].price));\n    //clear the request to let another guest request\n    stayData[_tokenId].requested = address(0);\n    stayData[_tokenId].stays++;\n    emit CheckOut(_tokenId);\n  }\n\n  /* function payOut(uint256 _tokenId, uint256 _price) {\n    require(propertyToken.transferFrom(address(this), property.ownerOf(_tokenId), _price));\n  }\n\n  function checkOut(uint256 _tokenId) external {\n    require(stayData[_tokenId].occupant == msg.sender);\n    //require(block.timestamp < stayData[_tokenId].checkOut);\n    payOut(_tokenId, stayData[_tokenId].price);\n    stayData[_tokenId].occupant = address(0);\n    stayData[_tokenId].requested = address(0);\n    emit CheckOut(_tokenId);\n  } */\n\n\n\n}\n",
  "sourcePath": "/Users/amy.yi/Desktop/MyProperty/contracts/PropertyRegistry.sol",
  "compiler": {
    "name": "solc",
    "version": "0.4.24+commit.e67f0147.Emscripten.clang"
  },
  "schemaVersion": "2.0.1",
  "updatedAt": "2018-11-24T19:13:00.319Z"
}